:020000040800F2
:10000000E80E002001010008090100080B010008AA
:100010000D0100080F010008110100080000000098
:1000200000000000000000000000000013010008B4
:1000300015010008000000001701000851520008D7
:100040001B0100081B0100081B01000811410008EA
:100050001B0100081B0100081B0100081B01000810
:100060001B010008B7530008A95300081B01000832
:10007000015400081B0100081B0100081B010008B7
:100080001B010008DB5300081B0100081B010008CE
:100090001B0100081B0100081B010008C5530008D4
:1000A0001B0100081B0100081B0100081B010008C0
:1000B0002F5300081B0100081B0100081B0100084A
:1000C0001B0100081B0100081B0100081B010008A0
:1000D0001B010008D75200087F5200085352000845
:1000E0001B0100083B4100081B010008DFF80CD091
:1000F00007F0EAFA0048004739520008E80E0020ED
:100100000648804706480047FEE7FEE7FEE7FEE7B1
:10011000FEE7FEE7FEE7FEE7FEE7FEE70302000874
:10012000ED00000831490143314A1160704770B554
:10013000002100230F22C47804B32D4C246804F45A
:10014000E064C4F5E064210AC1F10403CA404478C4
:1001500004FA03F18478144021430901254C067800
:10016000A155047804F01F050124AC4005786D11F9
:10017000AD0005F1E025C5F8004109E0047804F080
:100180001F050124AC401C4D0678761145F8264029
:1001900070BD1A4A0A400243154B1B1F1A60704774
:1001A00039B1134A121D12680243114B1B1D1A600C
:1001B00006E00F4A121D126882430D4B1B1D1A6088
:1001C0007047042808D14FF0E021096941F004018B
:1001D0004FF0E022116107E04FF0E021096921F0C2
:1001E00004014FF0E0221161704700000000FA05A1
:1001F0000CED00E000E400E080E100E080FFFF1F84
:10020000704710B53648006840F001003449086076
:10021000084640683349084031494860084600684C
:10022000314908402E4908600846006820F48020C3
:1002300008600846406820F4FE0048604FF41F0044
:100240008860FFF7DDFF4FF000602849086010BDAF
:1002500010B5002100200022214B5B6803F00C0147
:1002600021B1042906D0082928D107E0204B214CD0
:10027000236027E01E4B1F4C236023E0184B5B6874
:1002800003F47010164B5B6803F48032022303EB17
:10029000904022B9184B4343164C23600DE0104B9D
:1002A0005B6803F4003323B1134B4343114C2360C9
:1002B00003E00F4B43430F4C236003E00C4B0D4C0A
:1002C000236000BF00BF064B5B68C3F303130B4CF6
:1002D000E15C084B1B68CB40064C236010BD00005E
:1002E000001002400000FFF8FFFFF6FE08ED00E0FE
:1002F00000127A000000002000093D0004000020E8
:10030000002044490860091D0860091D0860091D96
:10031000086041483F4914310860704700213D4959
:100320008279002A3AD00A46126803689A430B463B
:100330001A600A1D126803689A430B1D1A6002793D
:1003400011440A6803681A430A60324A0832126884
:1003500003689A432F4B08331A601A1D126803680A
:100360009A432C4B0C331A604279102A0ED11A1F73
:10037000126803681A43274B08331A601A1D126863
:1003800003681A43234B0C331A600DE0214942796C
:1003900011440A6803681A430A6005E002791144AF
:1003A0000A6803689A430A6070470021016001717E
:1003B0000C21417100218171704716491031096883
:1003C0000143144A10321160704701460020114A5F
:1003D000143212680A400AB1012000E00020704780
:1003E0000C49143108607047014600200022094B77
:1003F0001B6803EA0102074B14331B680B4013B15F
:100400000AB1012000E00020704702491431086061
:100410007047000000040140FFFF0F00014600206C
:10042000FE4A106800F03800084310607047FB492E
:10043000096821F00801F94A116011460968014371
:1004400011607047F549096821F01001F34A116005
:1004500011460968014311607047F148EF4948604F
:10046000F04848607047EE48EC494860ED48486005
:100470007047EA48006940F08000E8490861704729
:10048000E648006940F08000E449086170470420B4
:10049000E249C96801F0010109B101200EE0DF491C
:1004A000C96801F0040109B1022007E0DB49C9680D
:1004B00001F0100109B1032000E00420704700B5ED
:1004C00002460423FFF7E3FF034603E0FFF7DFFFE5
:1004D0000346521E012B01D1002AF7D102B9052390
:1004E000184600BD30B5044604254FF43020FFF710
:1004F000E6FF0546042D17D1C848006940F0020008
:10050000C649086108464461006940F0400008613E
:100510004FF43020FFF7D3FF0546C048006941F68D
:10052000FD710840BD490861284630BD10B504245E
:100530004FF43020FFF7C3FF0446042C16D1B74810
:10054000006940F00400B54908610846006940F0C0
:10055000400008614FF43020FFF7B1FF0446AF4878
:10056000006941F6FB710840AC490861204610BDA6
:1005700000B502460423FFF78AFF034603E0FFF7B6
:1005800086FF0346521E012B01D1002AF7D102B982
:100590000523184600BD10B504244FF43020FFF7A2
:1005A000E7FF0446042C16D19C48006940F0040083
:1005B0009A4908610846006940F0400008614FF41C
:1005C0003020FFF7D5FF04469448006941F6FB71DF
:1005D000084092490861204610BD00208F49C96932
:1005E00001F0020109B1012000E00020704730B5A0
:1005F000A5250424FFF7F1FF00B100254FF43020BA
:10060000FFF75DFF0446042C3AD185488349886092
:10061000844888600846006940F020000861084668
:10062000006940F0400008614FF43020FFF747FFB9
:100630000446042C1BD17948006941F6DF7108405B
:10064000764908610846006940F010000861764864
:100650000580E002FFF733FF0446052C10D06F48F9
:10066000006941F6EF7108406C49086108E0052C0B
:1006700006D06A48006941F6EF7108406749086191
:10068000204630BD78B506460C4604250020009073
:10069000E802FFF714FF0546042D24D15F480069E6
:1006A00040F001005D4908613480E802FFF707FF70
:1006B0000546042D10D1B01C0090200C0099088034
:1006C000E802FFF7FCFE05465448006941F6FE715A
:1006D00008405249086106E05048006941F6FE7141
:1006E00008404E490861284678BD70B504460D465D
:1006F0000426F002FFF7E3FE0646042E11D1474818
:10070000006940F00100454908612580F002FFF7CB
:10071000D6FE06464148006941F6FE7108403F4951
:100720000861304670BD70B505460E460424E002EF
:10073000FFF7C5FE0446042C17D1394837498860B5
:10074000384888600846006940F0100008612E8033
:10075000E002FFF7B4FE0446052C06D02F480069DE
:1007600041F6EF7108402D490861204670BD2DE922
:10077000F04304464FF6FF763746B046B1460425AF
:10078000E443E6B2C4F30727C4F307484FEA146909
:10079000E802FFF794FE0546042D49D120481F4981
:1007A0008860204888600846006940F010000861B1
:1007B000FF2E06D01C4808300680E802FFF77FFEB7
:1007C0000546042D08D1FF2F06D017480A300780B0
:1007D000E802FFF774FE0546042D0AD1B8F1FF0FB9
:1007E00007D011480C30A0F80080E802FFF767FE40
:1007F0000546042D0AD1B9F1FF0F07D00A480E3083
:10080000A0F80090E802FFF75AFE0546052D0FD02C
:100810000248006941F6EF71084007E000200240FD
:1008200023016745AB89EFCD00F8FF1F66490861DA
:100830002846BDE8F08330B5054604244FF4302047
:10084000FFF73DFE0446042C41D160485E498860B4
:100850005F4888600846006940F02000086108464B
:10086000006940F0400008614FF43020FFF727FE98
:100870000446042C22D15448006941F6DF71084037
:10088000514908610846006940F0100008611DB137
:1008900000205049088002E0A5204E4908804FF40E
:1008A0003020FFF70CFE0446052C10D046480069A6
:1008B00041F6EF7108404449086108E0052C06D074
:1008C0004148006941F6DF7108403F490861204610
:1008D00030BDF0B505460E46174604243B483A495C
:1008E00088603B488860E002FFF7E9FD0446042C7D
:1008F00019D13548006940F010003349086147F0CC
:10090000F800304328433349891C0880E002FFF790
:10091000D6FD0446052C06D02B48006941F6EF7140
:100920000840294908612046F0BD2748C069800871
:1009300070472548006A704700202349096801F084
:10094000200109B1012000E00020704729B11E4AB2
:10095000126902431C4B1A6104E01B4A126982436C
:10096000194B1A61704701460020012908D1164A27
:10097000D26902F001020AB1012008E0002006E07D
:10098000114AD2680A400AB1012000E000207047F5
:100990000D49C860704704200B49C96801F0010186
:1009A00009B101200EE00849C96801F0040109B14C
:1009B000022007E00449C96801F0100109B10320D1
:1009C00000E004207047000000200240230167453A
:1009D000AB89EFCD00F8FF1F10B50446CC48844228
:1009E00008D10121042000F02DFB0021042000F09B
:1009F00029FB46E0C748844208D10121082000F0C5
:100A000021FB0021082000F01DFB3AE0C24884428F
:100A100008D10121102000F015FB0021102000F06A
:100A200011FB2EE0BD48844208D10121202000F0B6
:100A300009FB0021202000F005FB22E0B848844299
:100A400008D10121402000F0FDFA0021402000F0F3
:100A5000F9FA16E0B348844208D10121802000F061
:100A6000F1FA0021802000F0EDFA0AE0AE4884425D
:100A700007D10121801500F0E5FA0021A01500F052
:100A8000E1FA10BD10B50121084600F0DBFA0021A3
:100A9000012000F0D7FA10BD2DE9F04102460025F3
:100AA0000026002000230024002791F803C00CF04A
:100AB0000F0591F803C00CF0100CBCF1000F03D02F
:100AC00091F802C04CEA050591F800C0BCF1000F96
:100AD00031D0146800202BE04FF0010C0CFA00F329
:100AE000B1F800C00CEA03069E4220D183004FF00B
:100AF0000F0C0CFA03F7BC4305FA03FC4CEA0404A0
:100B000091F803C0BCF1280F06D14FF0010C0CFA8C
:100B100000FCC2F814C00AE091F803C0BCF1480F11
:100B200005D14FF0010C0CFA00FCC2F810C0401CBB
:100B30000828D1D31460B1F800C0BCF1FF0F34DD38
:100B4000546800202EE000F1080C4FF0010808FA6C
:100B50000CF3B1F800C00CEA03069E4221D18300D9
:100B60004FF00F0C0CFA03F7BC4305FA03FC4CEAF8
:100B7000040491F803C0BCF1280F05D100F1080C62
:100B800008FA0CF8C2F8148091F803C0BCF1480FC1
:100B900007D100F1080C4FF0010808FA0CF8C2F870
:100BA0001080401C0828CED35460BDE8F0814FF679
:100BB000FF710180022181700421C17070470246DB
:100BC000002093680B400BB1012000E0002070472B
:100BD0000146886880B2704702460020D3680B4007
:100BE0000BB1012000E0002070470146C86880B2C8
:100BF000704701617047416170470AB1016100E0CF
:100C000041617047C16070474FF480320A4382618E
:100C10008161826182698269704702460020434B8C
:100C200018684FF68073184040EA021008433F4BA3
:100C3000186070473E49C8617047F0B50A46002306
:100C400000240021002500F00046B6F1004F02D13B
:100C5000364EF16901E0354E7168C0F3034583B249
:100C600000F44016B6F5401F08D121F070612F4EF8
:100C7000766826F070662D4F7E6012E000F48016D4
:100C8000B6F5801F06D1032606FA05F4A14341F00C
:100C9000706106E0460D360103FA06F6B14341F0F5
:100CA000706122B1460D360103FA06F6314300F0B9
:100CB0000046B6F1004F02D11C4EF16101E01B4E1F
:100CC0007160F0BD30B500228B071C0F0F2303FAB3
:100CD00004F2164B08338C1053F824309343134C12
:100CE00008348D1044F8253023468C1053F82430F6
:100CF0008C07240F00FA04F423430C4C08348D10A5
:100D000044F8253030BD0A49DC31086070470000E6
:100D100000080140000C0140001001400014014097
:100D200000180140001C014000200140000001406B
:100D300000002042DF48006840F00100DD49086003
:100D400008464068DC490840DA49486008460068BF
:100D5000DA490840D74908600846006820F4802036
:100D600008600846406820F4FE0048604FF41F0009
:100D700088607047CF49096821F48031CD4A1160FD
:100D80001146096821F480211160B0F5803F03D03D
:100D9000B0F5802F0ED106E0C649096841F48031D4
:100DA000C44A116007E0C349096841F4A021C14A5F
:100DB000116000E000BF00BF704710B5014600227F
:100DC000002300204A11012A02D1BA4C236806E010
:100DD000022A02D1B74C236A01E0B64C636A01F0E3
:100DE0001F02012494401C400CB1012000E00020AF
:100DF00010BD38B5002000900024002500BF312030
:100E0000FFF7DBFF05460098401C00900098B0F506
:100E1000A06F01D0002DF2D03120FFF7CEFF08B136
:100E2000012400E00024204638BD01460020A14AEC
:100E3000106820F0F80040EAC10010607047A04937
:100E400008607047024600209A4B586820F47C10D6
:100E500042EA01031843974B586070479849086667
:100E6000704701460020934A506820F00300084371
:100E7000506070478F48406800F00C007047014692
:100E800000208C4A506820F0F00008435060704702
:100E900001460020874A506820F4E0600843506013
:100EA000704701460020834A506820F4605040EAB1
:100EB000C1005060704729B17E4A527A02437D4B8F
:100EC0005A7204E07B4A527A82437A4B5A727047D4
:100ED0007B49D8310860704701460020754A506848
:100EE00020F440400843506070470021714A20328E
:100EF0001170704A82F82010012802D004280AD10B
:100F000004E001216B4A2032117005E00521694A95
:100F10002032117000E000BF00BF704769490860CF
:100F200070476449096A0143624A11627047654922
:100F300044390860704730B50021002200240023A6
:100F40005C4D6D6805F00C0121B1042905D008291C
:100F500023D105E05C4D056022E05B4D05601FE09C
:100F6000544D6D6805F47012524D6D6805F480346F
:100F7000022505EB92421CB9544D554305600BE028
:100F80004C4D6D6805F400351DB1504D554305605D
:100F900002E04D4D5543056002E04B4D056000BF3A
:100FA00000BF444D6D6805F0F0010909484D6B5CC8
:100FB0000568DD4045603F4D6D6805F4E061090A54
:100FC000434D6B5C4568DD4085603A4D6D6805F4C6
:100FD0006051C90A3E4D6B5C4568DD40C560354DCA
:100FE0006D6805F44041890B3A4D6B5CC568B5FBF3
:100FF000F3F5056130BD29B12E4A526902432D4BEC
:101000005A6104E02B4A526982432A4B5A61704765
:1010100029B1284A92690243264B9A6104E0254A85
:1010200092698243234B9A61704729B1214AD26960
:101030000243204BDA6104E01E4AD26982431D4B11
:10104000DA61704729B11B4AD2680243194BDA6052
:1010500004E0184AD2688243164BDA60704729B11F
:10106000144A12690243134B1A6104E0114A1269CF
:101070008243104B1A61704712494039086070472B
:101080000F49C86470470B49C87170470948406AE6
:1010900040F0807007494862704701460020054AC9
:1010A00092680A400AB1012000E00020704701491F
:1010B00088727047001002400000FFF8FFFFF6FE44
:1010C000000042428004424200127A0000093D00C2
:1010D000140000202400002010B50446FB48844280
:1010E00009D101218803FFF7ADFF00214FF48040B3
:1010F000FFF7A8FF32E0F648844209D101214804F5
:10110000FFF7ADFF00214FF40030FFF7A8FF25E007
:10111000F048844209D101218804FFF7A0FF002193
:101120004FF48020FFF79BFF18E0EB48844209D181
:101130000121C804FFF793FF00214FF40020FFF7BF
:101140008EFF0BE0E548844208D101210805FFF736
:1011500086FF00214FF48010FFF781FF10BD2DE9BD
:10116000F04786B005460E460024A24600BFA146C1
:101170000027B08900B100BF2F462C8A4CF6FF70C3
:101180000440F08804432C82AC894EF6F3100440EE
:10119000B08831890843718908430443AC81AC8A23
:1011A0004FF6FF400440B0890443AC8201A8FFF72A
:1011B000C2FEC648874202D1DDF810A001E0DDF88A
:1011C0000CA0A88900F4004040B10AEBCA0000EB73
:1011D0000A1031684900B0FBF1F807E00AEBCA00D9
:1011E00000EB0A1031688900B0FBF1F86420B8FB0D
:1011F000F0F004012009642101FB1089A88900F4A2
:10120000004040B1322000EBC900B0FBF1F000F02B
:101210000700044308E0322000EB09106421B0FB12
:10122000F1F000F00F0004432C8106B0BDE8F08718
:101230004FF41651016000218180C18001810C2191
:10124000418100218181704710B502460020108A3B
:101250004FF2FF0318400B884C8823438C882343AC
:10126000CC8823431843108210BD002101804180A7
:101270008180C180704721B1828942F4005282810D
:1012800004E082894DF6FF731A4082817047F0B501
:101290000346002400260025002040F66A17B942C4
:1012A00000D100BF1846C1F3421401F01F06012708
:1012B00007FA06F5012C01D10C3004E0022C01D113
:1012C000103000E014301AB107682F43076002E0C5
:1012D0000768AF430760F0BD1AB1838A0B4383826E
:1012E00002E0838A8B4383827047028A4FF6F07351
:1012F0001A400282028A0A430282704782894FF2B0
:10130000FF731A40828182890A438281704721B12A
:10131000828942F00202828104E082894FF6FD73E5
:101320001A4082817047028A4FF6DF731A400282A8
:10133000028A0A430282704721B1028A42F4804243
:10134000028204E0028A4BF6FF731A400282704761
:10135000C1F308028280704701468888C0F3080004
:101360007047818941F0010181817047028BD2B2BF
:101370000283028B42EA012202837047028B02F44D
:101380007F420283028B0A430283704721B1828A23
:1013900042F02002828204E0828A4FF6DF731A4014
:1013A0008282704721B1828A42F01002828204E078
:1013B000828A4FF6EF731A408282704721B1828A87
:1013C00042F00802828204E0828A4FF6F7731A40E4
:1013D0008282704721B1828942F40042828103E017
:1013E0008289C2F30E028281704721B1828A42F45F
:1013F0000062828204E0828A4FF2FF731A40828286
:101400007047828A4FF6FB731A408282828A0A43AF
:101410008282704721B1828A42F00202828204E015
:10142000828A4FF6FD731A4082827047024600207E
:10143000B1F5007F00D100BF13880B400BB1012034
:1014400000E00020704701F40072B2F5007F00D187
:1014500000BFCA430280704770B5024600240023D3
:101460000025002040F66A16B14200D100BFC1F34A
:10147000421501F01F03012606FA03F3012D02D1E4
:101480009689334006E0022D02D1168A334001E0EE
:10149000968A33400C12012606FA04F4168834406A
:1014A00013B10CB1012000E0002070BD10B5002286
:1014B000002340F66A14A14200D100BF0A120124A1
:1014C0009440A3B2DC43048010BD0000003801400A
:1014D0000044004000480040004C004000500040E4
:1014E00001684FF6FE721140016000210160416009
:1014F0008160C1608D49884208D18C4908394968AA
:1015000041F00F01894A083A51608AE08749143155
:10151000884208D185490839496841F0F001834A79
:10152000083A51607DE081492831884208D17F49DD
:101530000839496841F470617C4A083A516070E0AA
:101540007A493C31884208D178490839496841F4E0
:101550007041764A083A516063E0744950318842DC
:1015600008D172490839496841F470216F4A083A34
:10157000516056E06D496431884208D16B490839A1
:10158000496841F47001694A083A516049E0674985
:101590007831884208D165490839496841F070615D
:1015A000624A083A51603CE06149884206D1011F15
:1015B000096841F00F01021F116032E05C491431EB
:1015C000884208D15A49091F096841F0F001584A78
:1015D000121F116025E056492831884208D154492C
:1015E000091F096841F47061514A121F116018E027
:1015F0004F493C31884208D14D49091F096841F4DF
:1016000070414B4A121F11600BE04949503188422A
:1016100007D14749091F096841F47021444A121F44
:101620001160704710B50022026847F6F0739A43C4
:101630000C6A8B6823430C6923434C6923438C69F0
:101640002343CC6923434C6A23438C6A23431A43C4
:101650000260CB6843600B6883604B68C36010BD59
:101660000021016041608160C1600161416181616F
:10167000C161016241628162704721B1026842F03A
:101680000102026004E002684FF6FE731A40026035
:1016900070471AB103680B43036002E003688B4391
:1016A00003607047416070470146486880B27047E8
:1016B00001460020002201F080531BB11C4B083B67
:1016C0001A6802E0194B083B1A6802EA01030BB1E1
:1016D000012000E00020704700F0805119B114494A
:1016E000091F086002E01149083948607047014647
:1016F0000020002201F080531BB10D4B083B1A68FB
:1017000002E00A4B083B1A6802EA01030BB1012010
:1017100000E00020704700F0805119B10449091F12
:10172000086002E00149083948607047080002403B
:101730000804024010B50446FE48844208D1012145
:10174000C014FFF77FFC0021E014FFF77BFCC4E02E
:10175000B4F1804F08D101210846FFF780FC002139
:101760000120FFF77CFCB8E0F348844208D1012156
:101770000220FFF774FC00210220FFF770FCACE0B0
:10178000EE48844208D101210420FFF768FC0021C3
:101790000420FFF764FCA0E0E948844208D101215D
:1017A0000820FFF75CFC00210820FFF758FC94E0BC
:1017B000E448844208D101211020FFF750FC0021A9
:1017C0001020FFF74CFC88E0DF48844208D101215B
:1017D0002020FFF744FC00212020FFF740FC7CE0A4
:1017E000DA48844208D101214014FFF72BFC002184
:1017F0006014FFF727FC70E0D548844209D101212D
:10180000C804FFF71FFC00214FF40020FFF71AFC6B
:1018100063E0D048844209D101210805FFF712FC9A
:1018200000214FF48010FFF70DFC56E0CA488442B7
:1018300009D101214805FFF705FC00214FF40010F4
:10184000FFF700FC49E0C548844208D1012140204F
:10185000FFF705FC00214020FFF701FC3DE0C048F8
:10186000844208D101218020FFF7F9FB002180206C
:10187000FFF7F5FB31E0BB48844208D10121801518
:10188000FFF7EDFB0021A015FFF7E9FB25E0B648C7
:10189000844209D101210804FFF7D4FB00214FF451
:1018A0008030FFF7CFFB18E0B048844209D1012116
:1018B0004804FFF7C7FB00214FF40030FFF7C2FBDD
:1018C0000BE0AB48844208D101218804FFF7BAFB42
:1018D00000214FF48020FFF7B5FB10BD00220288E5
:1018E000944B98420ED0994B98420BD0B0F1804F58
:1018F00008D0914B984205D0904B984202D0904B23
:10190000984204D14FF68F731A404B881A438D4B7F
:10191000984207D08C4B984204D04FF6FF431A40B0
:10192000CB881A4302808B8883850B880385814B83
:1019300098420BD0854B984208D08B4B984205D0EB
:101940008A4B984202D08A4B984201D10B7A038687
:1019500001238382704770B5002400220023058C88
:101960004FF6FE7635400584028C8388048B4FF653
:101970008F752C40B51E2C400D882C43751E2A40B7
:101980000D892A434D882A436A4DA8420BD06F4DDA
:10199000A84208D0744DA84205D0744DA84202D088
:1019A000734DA84213D14FF6F7752A404D892A434B
:1019B0004FF6FB752A408D882A434FF6FF652B4072
:1019C0004FF6FF552B408D892B43CD892B438380C8
:1019D0000483CD888586028470BD70B50024002202
:1019E0000023058C4FF6EF7635400584028C838802
:1019F000048B48F6FF752C404FF6FF452C400D88B0
:101A00004FF6FF7606EA05252C434FF6DF752A4090
:101A10000D8906EA05152A434D8806EA05152A436D
:101A2000444DA84202D0494DA8421DD14FF67F75C2
:101A30002A404D894FF6FF7606EA05152A434FF6F0
:101A4000BF752A408D8806EA05152A434FF6FF35F3
:101A50002B404FF2FF752B408D8906EA85052B43FD
:101A6000CD8906EA85052B4383800483CD880587CD
:101A7000028470BD70B5002400220023058C4FF64F
:101A8000FF6635400584028C8388848B4FF68F7502
:101A90002C404FF6FC752C400D882C434FF6FF551B
:101AA0002A400D894FF6FF7606EA05252A434D8820
:101AB00006EA05252A431F4DA84202D0234DA8421D
:101AC0001DD14FF2FF752A404D894FF6FF7606EA89
:101AD00005252A434FF6FF352A408D8806EA05255D
:101AE0002A434EF6FF752B404DF6FF752B408D892E
:101AF00006EA05152B43CD8906EA05152B4383809D
:101B00008483CD888587028470BD70B50022002350
:101B10000024058C4EF6FF7635400584038C8488BE
:101B2000828B48F6FF752A404FF6FF452A400D8804
:101B300020E00000002C01400004004000080040AC
:101B4000000C004000100040001400400034014030
:101B5000004C01400050014000540140001800407A
:101B6000001C0040002000400040014000440140B3
:101B7000004801404FF6FF7606EA05252A434DF658
:101B8000FF752B400D8906EA05352B434D8806EA83
:101B900005352B43FA4DA84202D0FA4DA84208D190
:101BA0004BF6FF752C408D894FF6FF7606EA8515BA
:101BB0002C4384808283CD88A0F84050038470BD7C
:101BC000828B4FF2FF331A408283828B4FF6FF7372
:101BD00003EA01231A4382837047F0B50C46154689
:101BE000002200210026078C4EF6FF7C07EA0C0736
:101BF0000784828B018C4FF6FF7707EA043640F6A4
:101C0000FF473A404FF6FF7707EA05273A434FF67A
:101C1000FF7707EA03373A43D94FB8420ED0D94F7E
:101C2000B8420BD0B0F1804F08D0D74FB84205D0A2
:101C3000D64FB84202D0D64FB84206D14DF6FF7704
:101C4000394046F48057394305E047F6FF5739409D
:101C500044F48057394382830184F0BD828B4FF670
:101C6000F3731A408283828B0A4382837047F0B5F4
:101C70000C461546002200210026078C4FF6FF6C0B
:101C800007EA0C070784828B018C4FF6FF7707EA7F
:101C900004264FF60C773A404FF6FF7707EA031712
:101CA0002F433A43B64FB8420ED0B64FB8420BD08E
:101CB000B0F1804F08D0B44FB84205D0B34FB8420E
:101CC00002D0B34FB84206D14FF6FF57394046F421
:101CD0008077394305E04FF2FF57394044F480776D
:101CE000394382830184F0BD028B4FF2FF331A40E7
:101CF0000283028B4FF6FF7303EA01231A43028328
:101D00007047F0B50C461546002200210026078CCE
:101D10004FF6EF7C07EA0C070784028B018C4FF625
:101D2000FF7707EA041640F6FF473A404FF6FF7781
:101D300007EA03373A434FF6FF7707EA05273A43A6
:101D40008F4FB8420ED08F4FB8420BD0B0F1804FBA
:101D500008D08D4FB84205D08C4FB84202D08C4F7E
:101D6000B84206D14FF6DF77394046F010073943C5
:101D700005E04FF65F77394044F01007394302839E
:101D80000184F0BD028B4FF6F3731A400283028B7D
:101D90000A4302837047F0B50C4615460022002125
:101DA000068C4FF6FE773E400684028B018C4FF680
:101DB0000C7632407E1C06EA03162E433243704EE8
:101DC000B0420ED06F4EB0420BD0B0F1804F08D071
:101DD0006D4EB04205D06D4EB04202D06C4EB04256
:101DE00006D14FF6FD76314044F00106314305E05F
:101DF0004FF6F576314044F0010631430283018409
:101E0000F0BD70B505460C465D4885420ED05D4874
:101E100085420BD0B5F1804F08D05B48854205D094
:101E20005A48854202D05A48854200D100E000BF9E
:101E3000208850B92389A28861882846FFF7ABFF24
:101E4000E1882846FFF79EFF25E0208804280AD174
:101E50002389A28861882846FFF753FFE188284636
:101E6000FFF742FF17E0208808280AD12389A288BB
:101E700061882846FFF7FBFEE1882846FFF7EEFE63
:101E800009E02389A28861882846FFF7A6FEE18839
:101E90002846FFF795FE70BD2DE9F04105460C463A
:101EA00000260127608808B9022600E00026A088E5
:101EB000012801D1022700E001272088A0B9238949
:101EC000A28861882846FFF766FFE1882846FFF769
:101ED00059FF23893A4631462846FFF712FFE18829
:101EE0002846FFF701FF13E02389A288618828466E
:101EF000FFF707FFE1882846FFF7F6FE23893A46F9
:101F000031462846FFF747FFE1882846FFF73AFFAA
:101F1000BDE8F0810A884B881A438B881A43CB8826
:101F20001A430B891A434B891A438B891A43A0F829
:101F3000442070474FF6FF71818000210180C180ED
:101F40004180017270470021018041808180C18001
:101F5000018141818181C1817047002101804180DF
:101F6000012181800021C180018170470021018011
:101F700041808180C1800181418181817047000061
:101F8000002C0140003401400004004000080040E3
:101F9000000C004021B1028842F00102028004E0FE
:101FA00002884FF6FE731A400280704731B1B0F8D4
:101FB000442042F40042A0F8442005E0B0F8442058
:101FC000C2F30E02A0F8442070471AB183890B4374
:101FD000838102E083898B438381704781827047CC
:101FE00041EA0203A0F8483070471AB183890B43D5
:101FF000838102E083898B438381704701894FF697
:10200000F8721140018170470A46002101894FF69C
:102010008F73194011430181704730B504460D4656
:1020200029462046FFF7F0FF208940F00700208175
:1020300030BD2DE9F04104460D4616461F46602D81
:1020400006D13B46012231462046FFF75AFE05E005
:102050003B46012231462046FFF79DFE2946204699
:10206000FFF7D2FF208940F007002081BDE8F08112
:1020700030B50C4600210189C9B24FF6FF7505EA5B
:102080000325154325432943018130BD2DE9F04146
:1020900005460E4617469846002443463A463146C2
:1020A0002846FFF7E5FF2C894FF6F870044044F00E
:1020B00007044FF68F70044044F070042C81BDE893
:1020C000F081F0B504460D4616461F463B463246A3
:1020D00029462046FFF7CCFF208940F4804020812C
:1020E000F0BD0185828270470A46002101884FF6C3
:1020F0008F731940114301807047F0B50C461546A7
:102100001E460021002200230189028B038C4FF61A
:10211000F877394021434FF6FC473A4040F2011727
:102120003A434FF6DD773B404FF6FF7707EA061755
:102130002F433B43018102830384F0BD0A46002103
:10214000018B4FF68F7319401143018370470A4684
:102150000021018B48F6FF7319404FF6FF7303EA25
:1021600002231943018370470A460021818B4FF6F1
:102170008F7319401143818370470A460021818B78
:1021800048F6FF7319404FF6FF7303EA0223194321
:102190008183704721B1028842F08002028004E00E
:1021A00002884FF67F731A400280704721B18288FF
:1021B00042F00402828004E082884FF6FB731A40EA
:1021C0008280704721B1828842F00802828004E058
:1021D00082884FF6F7731A408280704721B1828857
:1021E00042F00102828004E082884FF6FE731A40BA
:1021F000828070470A460021018B4FF6F773194021
:102200001143018370470A460021018B4FF2FF738F
:1022100019404FF6FF7303EA022319430183704705
:102220000A460021818B4FF6F773194011438183D1
:1022300070470A460021818B4FF2FF7319404FF619
:10224000FF7303EA02231943818370470A46002182
:10225000018B4FF6FB7319401143018370470A4607
:102260000021018B4FF6FF3319404FF6FF7303EA4D
:1022700002231943018370470A460021818B4FF6E0
:10228000FB7319401143818370470A460021818BFB
:102290004FF6FF3319404FF6FF7303EA0223194349
:1022A000818370470A460021018B4FF67F731940E6
:1022B0001143018370470A460021018BC1F30E01CF
:1022C0004FF6FF7303EA02231943018370470A465E
:1022D0000021818B4FF67F73194011438183704732
:1022E0000A460021818BC1F30E014FF6FF7303EA0A
:1022F00002231943818370470A460021018C4FF65F
:10230000FD7319401143018470470A460021018C76
:102310004FF6F77319401143018470470A460021B4
:10232000018C4FF6DF7319404FF6FF7303EA021377
:102330001943018470470A460021018C4FF67F73D0
:1023400019404FF6FF7303EA0213194301847047E3
:102350000A460021018C4FF6FF5319404FF6FF73D8
:1023600003EA02231943018470470A460021018CC5
:102370004FF2FF7319404FF6FF7303EA022319432C
:10238000018470470A460021018C4DF6FF73194005
:102390004FF6FF7303EA023319430184704730B5E7
:1023A000002301248C40A3B2048C9C430484048C3D
:1023B00002FA01F5ADB22C43048430BD30B50023E0
:1023C00004248C40A3B2048C9C430484048C02FA41
:1023D00001F5ADB22C43048430BD70B50346002036
:1023E00000241846183001258D40ACB21D8CA54341
:1023F0001D8409B1082909D100EB6100056825F0A9
:10240000700505600568154305600EE00D1FC5F3F6
:102410004E052844056825F4E045056005684FF63B
:10242000FF7606EA02263543056070BD21B10288B9
:1024300042F00202028004E002884FF6FD731A4067
:102440000280704721B1028842F00402028004E059
:1024500002884FF6FB731A400280704721B18288D0
:1024600042F08002828004E082884FF67F731A4037
:102470008280704702884FF6F7731A400280028804
:102480000A430280704782884FF68F731A40828019
:1024900082880A438280704702894FF6F8731A4097
:1024A000028102890A430281704702894FF67F73D5
:1024B0001A40028102890A43028170478184704771
:1024C0008185704781867047018770478187704793
:1024D000A0F84010704702884FF6FF431A40028070
:1024E00002880A43028070470146888E7047014681
:1024F000088F70470146888F70470146B1F8400049
:1025000070470146888C70470146088D7047024627
:102510000020138A0B400BB1012000E0002070471F
:10252000CA430282704730B50246002000230024CF
:10253000158A05EA0103958905EA010413B10CB176
:10254000012000E0002030BDCA4302827047000035
:102550000E49086070470D49486070470B49886014
:1025600070474AF6AA200949086070474CF6CC40EB
:1025700006490860704701460020044AD2680A40B4
:102580000AB1012000E00020704700000030004048
:102590000A480068000C704708480068C0F30B0048
:1025A000704729B1054A52680243044B5A6004E05F
:1025B000024A52688243014B5A607047002004E08F
:1025C00010B50120FEF758FD0020FEF755FD10BDA7
:1025D0002A49086070472949091F08607047274940
:1025E00084310860704701460020254A10884FF664
:1025F0007F4210400843224A108070470146002065
:102600001F4A10884FF68072104008431C4A108001
:10261000704708B500220092194A2C3A0092009A9D
:1026200002440092009A116008BD08B501460020DE
:10263000009013482C3800900098084400900098AF
:10264000008808BD0D489C300068C0B270470C4837
:102650000830008840F001000949083108807047BF
:102660000648A0300068C0B27047054808300088AE
:1026700040F00200024908310880704704860D428C
:102680002C6C004029B1564A12880243544B1A80E0
:1026900004E0534A12888243514B1A8070475048D5
:1026A000001D008840F010004D49091D088070474A
:1026B0004B48001D00884FF6EF7108404849091D3E
:1026C00008807047002146481C300188001F0088A0
:1026D00041EA0040704700B50246FFF7E0FF100CEA
:1026E0003F4918310880091D0A80FFF7E1FF00BD4E
:1026F00000B50246FFF7D3FFC2F303403849083163
:102700000880091D0A80FFF7D3FF00BD00B502460F
:10271000FFF7C5FF100C324920310880091D0A80DF
:10272000FFF7C6FF00BD00202D49103109880907B9
:10273000080B2B49143109880843704708B500205D
:10274000009007E00098411C009142F2107188420D
:1027500000D906E02248001D008800F02000002873
:10276000F0D000BF08BD1E48001D00884FF6F7716D
:1027700008401B49091D088000BF1948001D00883A
:1027800000F008000028F8D0704701460020144AE5
:10279000121D12880A400AB1012000E00020704793
:1027A0000F49091D098881430D4A121D1180704788
:1027B000014600200A4A121D12880A40D0B2084A77
:1027C00012880A4012B108B1012000E000207047D1
:1027D0000349091D09888143014A121D1180704770
:1027E0000028004010B501210807FEF738FC002141
:1027F0004FF08050FEF733FC10BD2A490862704745
:1028000028490861704701460020274A106820F0D7
:10281000E0000843106070472249A031086070470B
:1028200010B502460020204B186820F0030010432A
:1028300018601E4B1B6843F004031C4C23600129E5
:1028400001D130BF00E020BF184B1B6823F0040308
:10285000164C236010BD1448006840F00400124973
:1028600008600846006840F0020008600F480068F1
:1028700040F004000D49086000BF00BF30BF704742
:1028800001460020084A52680A400AB1012000E0CF
:10289000002070470449096841EA8001024A11603A
:1028A0007047000000000E420070004010ED00E094
:1028B00010B50446FA48844208D101214015FEF7BC
:1028C000C1FB00216015FEF7BDFB17E0F54884420F
:1028D00008D101210015FEF7B5FB00212015FEF7F8
:1028E000B1FB0BE0F048844208D10121C803FEF798
:1028F000A9FB00214FF40040FEF7A4FB10BD30B54A
:102900000246002000235068E84C20400D790C68F6
:1029100044EA0524204350609068E54C2040D1E90A
:1029200002542C434D7944EA450420439060D06A18
:1029300020F470000C7C641EE4B2234340EA035090
:10294000D06230BD00210160017141718160C160C0
:1029500001210174704721B1826842F00102826056
:1029600003E0826822F001028260704721B1826830
:1029700042F48072826003E0826822F48072826096
:10298000704710B50023CBB21AB144681C434460B1
:1029900002E044689C43446010BD816841F0080136
:1029A00081607047014600208A6802F008020AB17F
:1029B000012000E000207047816841F0040181603F
:1029C0007047014600208A6802F004020AB1012023
:1029D00000E00020704721B1826842F4A0028260CA
:1029E00003E0826822F4A002826070470146002062
:1029F0008A6802F480020AB1012000E000207047DA
:102A000010B50A4600210023416821F46041531E9D
:102A100041EA4331416010BD21B1426842F4006295
:102A2000426003E0426822F4006242607047F0B501
:102A300004460D4600200021092D11DDE068A5F1B6
:102A40000A0606EB4607072606FA07F18843A5F1B2
:102A50000A0606EB460603FA06F10843E0600CE0BE
:102A6000206905EB4507072606FA07F1884305EBC1
:102A7000450603FA06F108432061072A0FDA606B66
:102A8000561E06EB86071F2606FA07F18843561ED8
:102A900006EB860605FA06F10843606322E00D2A7C
:102AA0000FDA206BD61F06EB86071F2606FA07F102
:102AB0008843D61F06EB860605FA06F10843206315
:102AC00010E0E06AA2F10D0606EB86071F2606FA63
:102AD00007F18843A2F10D0606EB860605FA06F11A
:102AE0000843E062F0BD21B1826842F48012826046
:102AF00003E0826822F48012826070470146C86C4D
:102B000080B2704766484C300068704721B1426817
:102B100042F48062426003E0426822F480624260D4
:102B2000704721B1426842F48052426003E042683B
:102B300022F48052426070470A460021816821F4E5
:102B4000E04111438160704721B1826842F4004244
:102B5000826003E0826822F400428260704721B103
:102B6000826842F40212826003E0826822F4021258
:102B700082607047014600208A6802F400120AB1A0
:102B8000012000E000207047F0B504461546002003
:102B900000220026092911DDE068A1F10A0707EBF0
:102BA000470C072707FA0CF29043A1F10A0707EB3D
:102BB000470703FA07F21043E0600CE0206901EBDD
:102BC000410C072707FA0CF2904301EB410703FA87
:102BD00007F210432061A06BC0F30156EF1C06F111
:102BE000010CA7EB0C0707EB870C1F2707FA0CF269
:102BF0009043EF1C06F1010CA7EB0C0707EB8707CE
:102C000001FA07F21043A063F0BD10B50A46002197
:102C10000023816B21F44011531E41EA035181636B
:102C200010BD08B5002300930090009B0B44009357
:102C3000009B1A6008BD08B5024600200090009273
:102C400001F12800009B184400900098006880B2B1
:102C500008BD0A4600214168164B194011434160E6
:102C600070474162826270470A460021416821F044
:102C70001F0111434160704740B10949083109689B
:102C800041F40001064A0832116007E004490831A6
:102C9000096821F40001024A0832116070470000FF
:102CA0000024014000280140003C0140FFFEF0FFED
:102CB000FDF7F1FFFFFD3FFF0246002013680B40C8
:102CC0000BB1012000E000207047CA43026070474A
:102CD00070B502460020002300240B125568CEB2C6
:102CE00005EA060415681D4015B10CB1012000E08D
:102CF000002070BD00220A12D34303607047000019
:102D000070B502460C46FF25FF2309E012F8010BBF
:102D100080EA05010648405C80EA03050548435CFB
:102D20002000A4F10106B4B2F0D143EA052070BD41
:102D3000488000084881000870B502460C46002112
:102D4000002500231078302843D15078782802D00D
:102D5000507858283DD1907808B9002070BD0221E4
:102D600030E0505C10B9236001252DE0505C412813
:102D700002DB505C46280BDD505C612802DB505CB6
:102D8000662805DD505C302819DB505C392816DCDC
:102D9000505C302805DB505C392802DC505C303850
:102DA0000AE0505C412805DB505C462802DC505CA0
:102DB000373801E0505C573800EB031301E0002581
:102DC00002E0491C0B29CCD300BF0B2934D30025CA
:102DD00032E000212AE0505C10B92360012527E091
:102DE000505C6B2802D0505C4B2804D119B19B0277
:102DF000236001251CE0505C6D2802D0505C4D28FA
:102E000004D119B11B052360012511E0505C302865
:102E100009DB505C392806DC505C303803EB830654
:102E200000EB460301E0002502E0491C0B29D2D348
:102E300000BF0B2900D3002528468FE710B50146B7
:102E400000230020002223E00C78302C06DB0C78D5
:102E5000392C03DC0C78303CE3B214E00C78612CA4
:102E600006DB0C78662C03DC0C78573CE3B20AE0F6
:102E70000C78412C06DB0C78462C03DC0C78373CB4
:102E8000E3B200E006E003EB0010491C541CE2B280
:102E9000082AD9DB00BF10BD0146444802688A42B7
:102EA00001D3501A7047C1F1FF301044401CF9E7BC
:102EB000F0B502460024002540F6FF76012901D135
:102EC0001088F0BD022908D11088B2F802C000EBCA
:102ED0000C0707EBD7704010F3E70B460CE01088A7
:102EE000A84200D915881088B04200D216881088F0
:102EF0000444921C581EC3B2002BF0DC601B841BE0
:102F0000881EB4FBF0F0DCE72DE9F04104461646DC
:102F10004FF0000C002240F6FF75012904D12088F3
:102F200018800020BDE8F081022914D1258862882C
:102F3000501B002801DB804601E0C0F10008B045CD
:102F400003DD002018800120ECE7A818C0F34F0033
:102F500018800020E6E70F460CE02088904200D958
:102F600022882088A84200D2258820888444A41C76
:102F7000781E87B2002FF0DC501B002801DB804652
:102F800001E0C0F10008B04503DD002018800120F9
:102F9000C8E7ACEB0200A0EB050C881EBCFBF0F010
:102FA00018800020BEE701480068704790030020A9
:102FB00008B5FDF7BFFE0120FDF741FF002000909E
:102FC00006E00098411C0091FE49884200D904E0C7
:102FD0002120FDF7F2FE0028F3D000BF1020FDF7FE
:102FE00031FA0120FDF71AFA0020FDF748FF4FF4EF
:102FF0008060FDF74DFF0020FDF753FF4FF4E01117
:103000000020FDF71FFF0120FDF728FF00200090A2
:1030100006E00098411C0091EA49884200D904E08A
:103020003920FDF7CAFE0028F3D000BF0220FDF7CB
:1030300018FF0020009006E00098411C0091E14933
:10304000884200D903E0FDF715FF0828F4D100BF3E
:10305000DD48DE49086008BD10B501211D20FDF7DF
:10306000D7FF0121DA48FDF7E8FD00214FF00060AD
:10307000FDF78FF84FF48060FDF754F810BD1FB5D1
:10308000002240F22551D348FEF701F90021D14832
:10309000FEF7F1F8CF48FEF71FF80820ADF80C0056
:1030A00003208DF80E0048208DF80F0003A9CA48B0
:1030B000FDF7F2FC01210846FDF7AAFF03210020DD
:1030C000FDF700FE0820019000208DF808000C207C
:1030D0008DF8090001208DF80A0001A8FDF71EF9FE
:1030E00009208DF8000002208DF8010000208DF8E5
:1030F000020001208DF803006846FDF718F81FBD97
:1031000008B54FF48070ADF8000003208DF8020080
:1031100048208DF803006946B048FDF7BDFC022049
:10312000ADF8000003208DF8020010208DF8030098
:103130006946A948FDF7B0FC1020ADF80000032057
:103140008DF8020048208DF803006946A248FDF77B
:10315000A3FC1020ADF8000003208DF802004820E9
:103160008DF8030069469D48FDF796FC08BD3EB505
:10317000044601210846FDF74BFF04210120FDF71D
:10318000A1FD1020019000208DF808000C208DF882
:103190000900012C03D101208DF80A0002E0002073
:1031A0008DF80A0001A8FDF7B9F80A208DF8000093
:1031B00002208DF8010000208DF80200012C03D1BF
:1031C00001208DF8030002E000208DF8030068461E
:1031D000FCF7ADFF08210120FDF774FD4FF480706E
:1031E000019000208DF808000C208DF80900012CBA
:1031F00003D101208DF80A0002E000208DF80A00BA
:1032000001A8FDF78BF817208DF80000012C03D1E1
:1032100001208DF8030002E000208DF803006846CD
:10322000FCF785FF3EBD10B5FDF730FF45F2555068
:10323000FFF78EF90420FFF78EF940F6FF70FFF7D5
:103240008DF9FFF78EF901210802FFF7AAF9FFF7C0
:103250008DF910BD00B58BB001210846FDF7CBFEFE
:103260005F48FEF73DF95F48009000200190102074
:10327000029000200390049080200590002006908A
:10328000079008904FF40050099000200A9069467A
:103290005348FEF7C7F900215148FEF7EEF9002226
:1032A00002214F48FEF7F5F9002280214D48001F0A
:1032B000FEF712F80BB000BD08B525208DF8000010
:1032C00001208DF8010000208DF8020001208DF80A
:1032D00003006846FCF72BFF08BD00B585B001214F
:1032E0008803FDF795FE01210420FDF791FE1820CB
:1032F0008DF813004FF40070ADF8100003208DF826
:10330000120004A93448FDF7C7FB04208DF8130010
:103310000002ADF8100003208DF8120004A92E4819
:10332000FDF7BAFB4FF4E13000900020ADF8040047
:10333000ADF80600ADF80800ADF80C000C20ADF8B3
:103340000A0069462748001FFDF709FF01212548AB
:10335000001FFDF790FF012240F225512148001F78
:10336000FDF795FFFFF7A8FF05B000BD00B58BB0D6
:1033700001210846FDF73FFE19483C30FEF7B0F842
:103380001448001D009000200190102002900020A1
:1033900003900490802005900020069007900890EC
:1033A0004FF40050099000200A9069460C483C30C8
:1033B000FEF738F900210A483C30FEF75EF900229A
:1033C000022111E020A10700005125020000002089
:1033D000000230000044004000080140000C0140A1
:1033E0004400024004380140B9483C30FEF751F92E
:1033F00000228021B748FDF76FFF0BB000BD08B574
:1034000026208DF8000001208DF8010000208DF8A5
:10341000020001208DF803006846FCF788FE08BD15
:1034200000B585B001214804FDF7FFFD012104200E
:10343000FDF7EEFD18208DF813000420ADF8100004
:1034400003208DF8120004A9A348FDF725FB0420F2
:103450008DF813000820ADF8100003208DF812003D
:1034600004A99D48FDF718FB4FF4E13000900020BF
:10347000ADF80400ADF80600ADF80800ADF80C009A
:103480000C20ADF80A0069469248FDF768FE01215C
:103490009048FDF7F0FE012240F225518D48FDF7DE
:1034A000F6FEFFF763FFFFF7AAFF05B000BD00B50A
:1034B0008BB001210846FDF79EFD85482838FEF7B0
:1034C0000FF8864800900020019010200290002004
:1034D00003900490802005900020069007900890AB
:1034E0004FF40050099000200A9069467848283827
:1034F000FEF798F8002176482838FEF7BEF800223B
:10350000022173482838FEF7C4F80022802173484E
:10351000001FFDF7E1FE0BB000BD08B527208DF8B8
:10352000000001208DF8010000208DF8020001202C
:103530008DF803006846FCF7FAFD08BD00B585B0BC
:1035400001218804FDF771FD01210820FDF760FDD0
:1035500018208DF813004FF48060ADF810000320A0
:103560008DF8120004A95E48FDF796FA04208DF844
:1035700013004002ADF8100003208DF8120004A9DA
:103580005748FDF789FA4FF4E13000900020ADF87C
:103590000400ADF80600ADF80800ADF80C000C20F2
:1035A000ADF80A0069464D48001FFDF7D8FD01211E
:1035B0004A48001FFDF75FFE012240F225514748AF
:1035C000001FFDF764FEFFF772FFFFF7A6FF05B0CF
:1035D00000BD10B501210846FDF727FD4FF47A71B3
:1035E000C80600F089F91C2000F0C9F910BD10B51B
:1035F0003C4A1146322000F0D3F9012000F037FA9E
:1036000010BD10B54FF0804000F09DF94FF0E02064
:10361000006920F001004FF0E02108610120FFF770
:10362000A6FDFFF72CFDFFF74DF82F490860FFF7C7
:1036300085F82D480068801CFFF768F80320FFF725
:10364000C7F84FF40030FCF7E0FE4FF40050FCF7F1
:10365000DCFEFFF773F8142001F03DF94FF4003061
:10366000FCF7D3FE01210846FFF7DAF8FFF7A0FCCC
:10367000FFF7D6FE01F0D1FD00F057FB1B480078A4
:1036800028B91B480078012801D11A490870174849
:103690000078012802D100201449087014480078ED
:1036A000012802D100201249087010BD10B5FFF7A3
:1036B0007FFCFFF7D1FCFFF723FD01F0CFF8FFF708
:1036C00088FFFFF70AFEFFF7ABFE00F0A4FC10BD79
:1036D000440002400044004000080140044800400B
:1036E000000C0140000048422C000020280000206F
:1036F000E80300206304002070B505460C4605B1C0
:1037000004B970BD00217548FDF7B7FF7348443810
:103710000565846440217248FDF795FE01216F48DC
:10372000FDF7ABFF012280216D48FDF7D5FD00BFFD
:10373000E7E770B505460C4605B104B970BD002138
:1037400066483C30FDF799FF64484438406840F0D3
:1037500070606249443948606048483005600846F6
:10376000C0F8844040215F48FDF76DFE01215B48B1
:103770003C30FDF782FF012280215A48FDF7ACFD65
:1037800000BFDBE770B505460C4605B104B970BD56
:10379000002152482838FDF770FF504844384068EF
:1037A00040F0F0004D4944394860084685620462A3
:1037B00040214D48FDF747FE012148482838FDF7D4
:1037C0005CFF012280214848FDF786FD00BFDEE74F
:1037D00070B504460D46002604B105B970BD05E07C
:1037E000761C42F21070864200D905E040213F4825
:1037F000FDF71CFE0128F3D100BF00213C48FDF776
:103800003CFF3B480C3004603948001D05604021F6
:103810003648FDF718FE01213548FDF72EFF01223D
:1038200080213248FDF758FD00BFD7E738B5044680
:103830000D460020009016E008E00098401C009023
:103840002C490098884201D9012038BD40212448E4
:10385000FDF7ECFD0028F0D00020009021782048F2
:10386000FDF776FD641C2800A5F101018DB2E3D1BE
:1038700000BFEAE738B504460D460020009016E088
:1038800008E00098401C00901A490098884201D92D
:10389000012038BD40211348FDF7C8FD0028F0D0B5
:1038A0000020009021780F48FDF752FD641C28008D
:1038B000A5F101018DB2E3D100BFEAE770B504467E
:1038C0000D4600BF40210648FDF7B0FD0028F9D0A5
:1038D000E1B20348FDF73CFD204670BD44000240C4
:1038E000003801400044004000480040004C0040C7
:1038F00058040240A08601003EB505460C46012C46
:1039000000DA01242846FDF715FFADF804404720F2
:10391000ADF800000020ADF80600ADF802008DF80B
:10392000080069462846FDF7D9FF01212846FEF721
:10393000F7FD002201212846FEF747FB002128461B
:10394000FEF728FB3EBD10B5044600212046FEF7D9
:1039500021FB002201212046FEF737FB10BD10B5E8
:10396000044601212046FEF7DBFD012211462046D8
:10397000FEF72BFB01212046FEF70CFB10BD38B5EE
:1039800004468DF8004001208DF8010000208DF8DC
:10399000020001208DF803006846FCF7C8FB38BD23
:1039A0002DE9F04F89B00446894615465248006813
:1039B000B0FBF4F64FF6FF70B6FBF0F087B2781C60
:1039C000B6FBF0F0401E1FFA80F8ADF81C80ADF891
:1039D00018700020ADF81E00ADF81A0006A947487F
:1039E000FDF77CFF6020ADF808000120ADF80A006B
:1039F000404603F0FEFB4946019003F0DAFA8346A5
:103A00003F4903F008FB824603F0F8FB80B2ADF8B3
:103A10000E000020ADF8100002A93848FDF79BFF0A
:103A200008213648FEF7E6FB0120ADF80A004046C3
:103A300003F0DFFB2946019003F0BBFA83463049CF
:103A400003F0E9FA824603F0D9FB80B2ADF80E002C
:103A500002A92A48FDF7C1FF08212848FEF7D3FB39
:103A600001212648FEF796FB09B0BDE8F08F10B59E
:103A70000446012C04D101212048FEF78BFA03E013
:103A800000211E48FEF786FA10BD2DE9F0470446D6
:103A90001A48FEF736FD814603F0ABFB804621460F
:103AA00003F087FA0746164903F0B5FA064603F015
:103AB000A5FB85B229461148FEF704FDBDE8F08755
:103AC0002DE9F04704460D48FEF71BFD814603F043
:103AD00090FB8046214603F06CFA0746084903F044
:103AE0009AFA064603F08AFB85B229460348FEF798
:103AF000EBFCBDE8F087000000000020000400405F
:103B00000000C8420146086870472DE9F0410446AC
:103B10000E462768781C10B10120BDE8F081FCF743
:103B20009CFC31462046FCF7ADFDFCF7A2FC276863
:103B3000B74201D1002500E001252846EDE710B588
:103B40000446FCF78AFC2046FCF7CCFCFCF791FC11
:103B500010BD2DE9F04104460D4616464FF6FF789C
:103B6000200400EB052087197748FFF7CBFFB84208
:103B700007D1754901EB8300FFF7C4FF1FFA80F8F6
:103B80000BE07248FFF7BEFFB84206D16F4901EB68
:103B90008300FFF7B7FF1FFA80F84046BDE8F081C9
:103BA0002DE9FC5F81468A4693461C460020019021
:103BB00000900CB1642C02DD6520BDE8FC9F4FEA4B
:103BC000094000EB0A2000EB0B075F48FFF79AFF64
:103BD0000546BD4207D15C4901EB84000C99FFF713
:103BE00094FF01900FE0681C58B939465648FFF71A
:103BF0008CFF554901EB84000C99FFF786FF01907B
:103C000001E001200090009801281FD100200090C1
:103C10004E48FFF777FF0646BE4207D14B4901EBFE
:103C200084000C99FFF771FF01900FE0701C58B9E8
:103C300039464648FFF769FF444901EB84000C9977
:103C4000FFF763FF019001E0012000900098012838
:103C500013D1B54202D2DFF8F08001E0DFF8EC804A
:103C60004046FFF76CFF39464046FFF74EFF08EB32
:103C700084000C99FFF749FF019001989DE72DE919
:103C8000F04105460C463248FFF759FF31492846B6
:103C900003F08FF9074603F0B1FA064631462C4887
:103CA000FFF733FF2B49204603F083F9074603F063
:103CB000A5FA064631462648001DFFF726FFBDE857
:103CC000F0812DE9F04106460F462148FFF71AFF23
:103CD00004461F48001DFFF715FF0546C82C01DCF0
:103CE000322C00DA6424C82D02DC15F1C80F00DA8A
:103CF0000025204603F074FA8046164903F08BF93C
:103D00003060284603F06CFA8046124903F083F9CC
:103D10003860BDE8F08110B50F48FFF710FF0F487D
:103D200001780D48FFF7F1FE10BD00B50A48FFF716
:103D3000E9FE0346012B04D01BB10020074908709F
:103D400001E006490B7000BD00D0000800E000084B
:103D500000B000080000C84200F00008AD030020D9
:103D600008B503208DF8000000208DF801008DF8C3
:103D7000020001208DF803006846FCF7D8F908BD61
:103D80003EB504464FF40030009000208DF804004A
:103D900008208DF805008DF806406846FCF7BEFA4D
:103DA00029208DF8080000208DF809008DF80A0000
:103DB0008DF80B4002A8FCF7BAF93EBDF0B50346FA
:103DC0000C461546642093FBF0F0C6B2642093FBCA
:103DD000F0F700FB1730C1B2132E02DD01F16400D1
:103DE000C1B20846CF1701EB977701EBA707BAB22C
:103DF000072092FBF0F700FB172082B25719601ED4
:103E0000DFF8F0C31CF80000384482B2CF1701EB92
:103E10009777BF10A1EB87071FB9032C01DA501E5B
:103E200082B2072092FBF0F700FB1720C0B2F0BD72
:103E30000146CA1701EB92729210A1EB820292B96D
:103E4000642091FBF0F200FB121050B94FF4C870DF
:103E500091FBF0F200FB121008B90120704700201E
:103E6000FCE70120FAE70020F8E770B500260024FF
:103E70000025FEF727FC0646DF48B6FBF0F4DF48D6
:103E80000088A0423CD0DD490C8040F2B27510E0C1
:103E90002846FFF7CDFF40B1B4F5B77F02D3A4F5B4
:103EA000B77404E0681C85B206E0A4F26D14681CC7
:103EB00085B2B4F5B67FEBD800BFD1488580002528
:103EC00016E0CF498888FFF7B3FF30B1012D04D148
:103ED0001D2C01D31D3C09E00CE0CA48405DA04206
:103EE00003D8C848405D241A00E003E0681C85B28E
:103EF0001C2CE6D200BF681CC1498871601CC871C7
:103F0000BD48B6FBF0F100FB11644FF46160B4FBF7
:103F1000F0F0BB4908704FF46160B4FBF0F100FBB6
:103F200011403C21B0FBF1F0B54948704FF461609D
:103F3000B4FBF0F100FB11403C21B0FBF1F201FBBE
:103F40001200AF4988700B46DA7999799888FFF7A3
:103F500035FFAB490872002070BD2DE9F05F0646C1
:103F60000F4690469946DDE90AAB002440F2B27054
:103F7000864203DB40F63300864202DD0120BDE8C5
:103F8000F09F40F2B2750AE02846FFF751FF10B1EA
:103F90009D48044401E09D480444681C85B2B54234
:103FA000F2DB781EC7B2002510E09648405D40F273
:103FB000A321484304EBC0143046FFF739FF18B182
:103FC000012D01D18C480444681C85B2BD42ECDB54
:103FD000A8F1010040F2A321484304EBC014C9EB4F
:103FE0004910C0EB092004EB0014CAEB0A1004EBE3
:103FF00080045C4401214FF0C050FDF716F8012009
:10400000FEF7FBFB2046FEF766FBFEF797FBFFF78C
:104010002CFF0020B3E77CB5002401214FF0C050F5
:10402000FDF703F80120FEF7E8FB0120FCF776FF1F
:1040300004E0601CC4B20A2000F04DFC6120FCF7D3
:10404000BCFE0028F5D0FA2C01DB01207CBD00204D
:10405000FCF74BFF4FF40070FCF763FF0120FCF707
:1040600066FF0420FEF7E1FA45F2500188423ED097
:10407000FEF7A6FA0120FCF751FF04E0601CC4B271
:104080000A2000F028FC6120FCF797FE0028F5D0FC
:10409000FA2C01DB0120D9E70020FCF726FF4FF4C2
:1040A0000070FCF73EFF0120FCF741FFFEF746FBE6
:1040B000FEF759FBFEF742FBFEF7F1FA49F64040E6
:1040C000FEF716FBFEF73AFB372000210A230222F7
:1040D000CDE900100C2140F2D970FFF73EFFFEF74A
:1040E000E7FA45F250010420FEF793FA03E0FEF7E9
:1040F0003AFBFEF723FBFFF7B8FEFEF7E3FA851C59
:104100002846FEF703FB0120FFF73AFE00209DE75B
:1041100010B5FEF713FB0720FEF75AFBFEF7D2FAA5
:104120003B490860FEF70AFB39480068801CFEF72F
:10413000EDFA01203749087010BD10B54FF400307A
:10414000FCF763F9FEF7FAFA0320FEF741FB0120C2
:104150003049087010BD2DE9F04705460E46174658
:104160009846DDE9089A002340F2B270854203DBED
:1041700040F63300854202DD0120BDE8F08740F2C1
:10418000B2740AE02046FFF753FE10B11E48034404
:1041900001E01E480344601C84B2AC42F2DB701E96
:1041A000C6B2002410E01748005D40F2A321484346
:1041B00003EBC0132846FFF73BFE18B1012C01D1D9
:1041C0000D480344601C84B2B442ECDB781E40F21C
:1041D000A321484303EBC013C8EB4810C0EB0820F1
:1041E00003EB0013C9EB091003EB8003534418469B
:1041F000C3E700004882000880510100340000201D
:1042000034070020548200080085E2018033E10178
:104210002C0000202800002008B501210820FCF710
:10422000F7FE4FF44060ADF8000010208DF8030059
:1042300003208DF8020069469748FCF72DFC4FF4E7
:1042400040619548FCF7D5FC08BD10B59248001DAB
:10425000006820F470609049091D086008460068F5
:1042600040F44070086001208C4908608C49C1F816
:10427000AC01042000F00BFB0020884908600420FA
:1042800000F005FB00208649C1F8AC0110BD10B557
:104290008148001D006820F470607F49091D086096
:1042A0000846006840F44070086000207B49091D02
:1042B00008607B49C1F8A801042000F0E8FA012059
:1042C0007649091D08607649C1F8A801042000F06C
:1042D000DEFA10BD10B500246F48001D006820F400
:1042E00070606D49091D08600846006840F4006070
:1042F000086001206949086000F0C9FA0120684996
:10430000C1F8AC0100F0C3FA07E0601CC4B2FA2C9B
:1043100003DDFFF7BCFF012010BD60488038006856
:104320000028F2D15D49091D086000BFF4E710B50F
:1043300000205A49091D08605748001D006820F4F4
:1043400070605549091D08600846006840F44070D7
:10435000086000205249C1F8A801022000F097FA35
:1043600001204E49091D0860022000F090FA00204B
:104370004B49C1F8AC0110BD10B500204749091DDB
:1043800008604548001D006820F470604249091D1E
:1043900008600846006840F4407008600120404909
:1043A000C1F8A801022000F072FA01203B49091D62
:1043B0000860022000F06BFA00203949C1F8AC0116
:1043C00010BD70B504463448001D006820F47060CC
:1043D0003149091D08600846006840F440700860D3
:1043E00000202E49091D086000251DE0E00918B1D4
:1043F00001202A49086002E0002028490860600680
:10440000040E022000F043FA01202449091D08602F
:10441000022000F03CFA00202149C1F8AC01022042
:1044200000F035FA681CC5B2082DDFDB70BD70B531
:10443000054600241848001D006820F470601649E5
:10444000091D08600846006840F400600860002606
:1044500017E000201149091D0860022000F017FA3A
:1044600001200F49C1F8AC016006040E0B488038EA
:10447000006808B1601CC4B2012000F008FA701C8A
:10448000C6B2082EE5DB15B9FFF776FF01E0FFF7AE
:104490004EFF204670BD0000000C0140A881214263
:1044A00000802142704770B505460C46FFF7CDFEEF
:1044B0002846FFF786FFFFF70DFF2046FFF781FF35
:1044C000FFF708FF70BD70B504460E46154620463E
:1044D0003146FFF7E8FF2846FFF773FFFFF7FAFEC4
:1044E000FFF7D5FE70BD10B5FFF796FE0022012143
:1044F0009020FFF7E8FF002202219020FFF7E3FF62
:10450000002203219020FFF7DEFF10BD70B50446A6
:104510000D4620462946FFF7C6FFFFF796FE44F0FA
:104520000100FFF74EFFFFF7D5FE0020FFF77FFFEA
:104530000646FFF7ACFE304670BD2DE9F0418046DF
:104540000D4616461F46002407E029464046FFF761
:10455000DDFF3055681CC5B2641CBC42F5DBBDE80C
:10456000F081F8B50024002502236A46002190203E
:10457000FFF7E3FF9DF801009DF8001040EA0120DD
:1045800005B2284602F02CFE06464FF06E5102F0AE
:1045900010FD04462046F8BD10B501219020FFF71C
:1045A000B5FF044644F0800201219020FFF78BFF05
:1045B00010BD10B5002201219020FFF784FF0022DA
:1045C00002219020FFF77FFF002203219020FFF7B8
:1045D0007AFF10BD2DE9F04104460E4620463146D3
:1045E000FFF761FFFFF731FE44F00100FFF7E9FE3E
:1045F000FFF770FE0120FFF71AFF0546FFF76AFE7E
:104600000020FFF714FF0746FFF741FE47EA0520A9
:1046100005B22846BDE8F0812DE9F04787480088BB
:1046200040F2253148434FF47A7190FBF1F7084688
:10463000784340F6E441C91BB0FBF1F8404602F074
:10464000D8FD06460025002440E07D4800EBC4006C
:104650004168304602F016FE37D8794A601C02EBFA
:10466000C0004168304602F017FE2ED2744B621C27
:1046700003EBC20251681A4602EBC402506802F012
:1046800092FC80466E4A52F834101346621C53F86E
:10469000320002F088FC8146414602F0BCFC05462F
:1046A000674901EBC4014868314602F07CFC804652
:1046B000294602F07EFC0546614850F83410284631
:1046C00002F01FFC0546002402E0641C6A2CBCD3E7
:1046D00000BF2846BDE8F0872DE9F84F4FF0000AEB
:1046E0000024A14600219020FFF774FF1FFA80FBF1
:1046F000584602F07EFD05464FF06E5102F059FC1F
:104700008146FFF789FF009002F08CFD07464FF0CD
:1047100066324C4B02F0BDFC054602F096FD0446A5
:104720004946204602F0B8FD22D24946204602F012
:104730003AFC0546444902F0AFFD0AD221464846FC
:1047400002F0DFFB05464FF0804102F064FC824638
:1047500065E04946204602F026FC05464FF07C51B4
:1047600002F09AFD5BD2A24601203849087056E05B
:104770004946204602F086FD4DD22146484602F0C9
:1047800012FC05464FF07C5102F086FD04D2A24691
:1047900001202E49087042E02146484602F003FC01
:1047A00005462B4902F078FD13D22146484602F017
:1047B000FAFB05464FF07C5102F064FD09D24FF040
:1047C0007A51204602F09DFB824601201F49087065
:1047D00025E02146484602F0E6FB05464FF07A51B7
:1047E00002F05AFD12D22146484602F0DCFB054693
:1047F000174902F047FD09D24FF07A51484602F0BE
:10480000D2FB824600201149087008E0CA46002009
:104810000E49087003E0CA4600200C4908700D4894
:104820000168504602F0C5FB05460B480168284662
:1048300002F067FB82465046BDE8F88F8C030020EB
:10484000380000206666FA3FCDCC8C3FA0030020E4
:104850006666E63ECC030020D003002010B56FF062
:104860000400FBF7AEFC2E4800682E49B0FBF1F0C7
:104870002D4908700846007800EB4001C1EBC010DC
:104880004FF6FF7101EAC0002849088010BD0146BB
:10489000254A12784A434FF0E0235A6100229A6178
:1048A0001A46126942F001021A6100BF4FF0E0227D
:1048B000106900F001021AB100F48032002AF5D02C
:1048C0004FF0E022126922F001024FF0E0231A615A
:1048D00000229A6170470146144A12884A434FF0F9
:1048E000E0235A6100229A611A46126942F00102DD
:1048F0001A6100BF4FF0E022106900F001021AB106
:1049000000F48032002AF5D04FF0E022126922F044
:1049100001024FF0E0231A6100229A617047000003
:104920000000002000127A00880300208A03002083
:104930001CB560208DF8060001208DF8050064206C
:104940004C2301220DF106010090F74800F014FB02
:104950006420442301220DF105010090F24800F08B
:104960000BFB64204423012201A90090EE4800F0D3
:1049700066FB6420B523012201A90090EA4800F0FB
:104980005EFB05208DF804006420B723012201A9F5
:104990000090E54800F0F0FA05208DF8040064204E
:1049A000B823012201A90090DF4800F0E5FA872032
:1049B0008DF804006420B323012201A90090DA4895
:1049C00000F0DAFA6420B823012201A90090D64849
:1049D00000F035FB6420B323012201A90090D248E6
:1049E00000F02DFB1CBD10B5CF4800F0BFF9FFF75C
:1049F0009FFF10BD1CB560208DF806006420442385
:104A0000012201A90090C84800F019FB9DF804009C
:104A100040F002008DF8050064204D2301220DF1C5
:104A200006010090C04800F0A7FA64204423012248
:104A30000DF105010090BC4800F09EFA1CBD1CB5AC
:104A400074208DF8060064204423012201A90090FF
:104A5000B54800F0F4FA9DF8040040F004008DF829
:104A6000050064204E2301220DF106010090AE489E
:104A700000F082FA6420442301220DF10501009028
:104A8000A94800F079FA1CBD1CB54C208DF8060031
:104A900064204423012201A90090A34800F0CFFA2A
:104AA0009DF8040040F008008DF8050064204F23B5
:104AB00001220DF1060100909B4800F05DFA642090
:104AC000442301220DF105010090974800F054FAAB
:104AD0001CBD1CB54C208DF8060064204423012227
:104AE00001A90090904800F0AAFA9DF8040040F057
:104AF00010008DF805006420502301220DF10601FD
:104B00000090894800F038FA6420442301220DF116
:104B100005010090844800F02FFA1CBD1CB56020F0
:104B2000019064203823012201A900907E4800F002
:104B300023FA0320019064203023012201A9009070
:104B4000794800F019FA1CBD1CB5642044230122E9
:104B500001A90090744800F072FA9DF8040000F07A
:104B6000EF008DF805006420442301220DF10501BA
:104B700000906D4800F000FA1CBD1CB56420442371
:104B8000012201A90090684800F059FA9DF804003C
:104B900000F0FB008DF805006420442301220DF194
:104BA00005010090604800F0E7F91CBD1CB56420C9
:104BB0004423012201A900905B4800F040FA9DF8CF
:104BC000040000F0F7008DF8050064204423012262
:104BD0000DF105010090544800F0CEF91CBD1CB544
:104BE00064204423012201A900904F4800F027FAD5
:104BF0009DF8040000F0FD008DF8050064204423BA
:104C000001220DF105010090474800F0B5F91CBDE7
:104C10001CB50220019064203023012201A90090DC
:104C2000414800F0A9F91CBD1CB501200190642089
:104C30000E23012201A900903B4800F09DF91CBD04
:104C40007CB501208DF806006420E02301220DF1DF
:104C500006010090344800F08FF96420EB23012214
:104C600001A90090304800F0EAF96420EC23012209
:104C70000DF1050100902C4800F0E1F99DF80520A8
:104C80009DF8041002EB012002F0AAFA054627491C
:104C900002F08FF9044620467CBD2DE9FC416420DA
:104CA000E423012201A900901F4800F0C8F9642004
:104CB000E52301220DF1050100901B4800F0BFF92A
:104CC0009DF805109DF8040001EB0024A4F5FA649A
:104CD0006420E223012201A90090134800F0AFF9FB
:104CE0006420E22301220DF1050100900E4800F03E
:104CF000A6F99DF805109DF8040001EB0025A5F527
:104D0000FA65204602F075FA0746642105FB01F0BA
:104D100002F06FFA8046394602F07DF906463046C9
:104D200002F06CFABDE8FC8160820008F6289C3F26
:104D30001CB56420BD23012201A900900A4800F09F
:104D40007EF99DF8040000F01F0008B9002400E07F
:104D5000012420461CBD10B5FFF7E0FE10BD10B5C4
:104D6000FFF756FF10BD00006082000838B504460A
:104D7000D4E9031241EA02000121FCF749F9208934
:104D8000ADF8000003208DF8020048208DF80300E4
:104D900069462068FBF780FE6089ADF800000320BB
:104DA0008DF8020048208DF8030069466068FBF723
:104DB00073FE38BD08B5C820009000BFBDF80000E4
:104DC000411E89B200910028F8D108BD00B5024605
:104DD000508951680861108911680861FFF7EAFF7E
:104DE000106880681189084008B9002000BD50890A
:104DF00051684861FFF7DEFF5068806851890840BC
:104E000008B10020F2E7108911684861FFF7D2FF6E
:104E10000120EBE700B50246508951684861FFF771
:104E2000C9FF108911684861FFF7C4FF1089116834
:104E30000861FFF7BFFF508951680861FFF7BAFFAB
:104E400000BD00B50246108911684861FFF7B2FF46
:104E5000508951684861FFF7ADFF108911680861FA
:104E6000FFF7A8FF108911684861FFF7A3FF00BD95
:104E700000B50246108911684861FFF79BFF508911
:104E800051680861FFF796FF108911680861FFF704
:104E900091FF108911684861FFF78CFF00BD00B5D4
:104EA0000246108911684861FFF784FF50895168F4
:104EB0000861FFF77FFF108911680861FFF77AFF2B
:104EC000506880685189084020B110891168486194
:104ED000002000BD1089116848610120F9E730B554
:104EE00002460C46082519E0108911684861FFF751
:104EF00061FF04F0800018B150895168086102E038
:104F00005089516848616006040EFFF753FF10890D
:104F100011680861FFF74EFFFFF74CFF2800A5F16D
:104F20000101CDB2E0D110891168486130BD30B5C2
:104F300002460825002450895168086112E0600685
:104F4000040E108911684861FFF734FF1089116859
:104F50000861FFF72FFF506880685189084008B149
:104F600044F001042800A5F10101CDB2E7D1108978
:104F700011684861204630BD2DE9F04107460C46D6
:104F800015461E46DDF818803846FFF71FFF10B99A
:104F90000020BDE8F08108F0FE013846FFF79FFFD2
:104FA0003846FFF77CFF20B93846FFF733FF002073
:104FB000EFE731463846FFF792FF3846FFF76FFFBD
:104FC00007E014F8011B3846FFF789FF3846FFF762
:104FD00066FF2800A5F10101CDB2F2D13846FFF7F6
:104FE00019FF0120D5E7F0B507460C4615461E46C9
:104FF0003846FFF7EBFE08B90020F0BD06F0FE01D1
:105000003846FFF76CFF3846FFF749FF20B93846AE
:10501000FFF700FF0020F0E707E014F8011B384617
:10502000FFF75DFF3846FFF73AFF2800A5F10101C1
:10503000CDB2F2D13846FFF7EDFE0120DDE72DE9D4
:10504000F04180460C4615461E46069F4046FFF737
:10505000BDFE10B90020BDE8F08107F0FE0140461A
:10506000FFF73DFF4046FFF71AFF20B94046FFF724
:10507000D1FE0020EFE731464046FFF730FF4046C3
:10508000FFF70DFF4046FFF7A1FE47F00101404644
:10509000FFF725FF4046FFF702FF0CE04046FFF711
:1050A00046FF04F8010B1DB94046FFF7E1FE02E0A0
:1050B0004046FFF7C6FE2800A5F10101CDB2EDD1B3
:1050C0004046FFF7A7FE0120C5E7F0B507460C46AE
:1050D00015461E463846FFF779FE08B90020F0BD98
:1050E00046F001013846FFF7FAFE3846FFF7D7FED3
:1050F0000CE03846FFF71BFF04F8010B1DB93846DA
:10510000FFF7B6FE02E03846FFF79BFE2800A5F148
:105110000101CDB2EDD13846FFF77CFE0120DEE77C
:1051200008B501210420FBF773FF0120ADF8000052
:1051300000208DF8030069463B48FBF7ADFC08BD35
:1051400000B591B001210846FBF755FF3748FCF741
:10515000C7F937480690374807900020089001208B
:10516000099000200A900B904FF480700C90800002
:105170000D9020200E9000020F900020109006A9A4
:105180002A48FCF74FFA01212848FCF776FA01215A
:105190004802FBF73DFF0020019001208DF8080038
:1051A0008DF809004FF46020039000200490012046
:1051B0008DF8140001A91E484C38FDF7A0FB05230B
:1051C000012200211A484C38FDF731FC0121184812
:1051D0004C38FDF7CBFB012115484C38FDF7BBFBE4
:1051E00013484C38FDF7D9FB00BF11484C38FDF788
:1051F000D9FB0028F9D10E484C38FDF7DDFB00BF84
:105200000B484C38FDF7DDFB0028F9D10121084897
:105210004C38FDF7E0FB11B000BD10B5FFF780FF83
:10522000FFF78EFF10BD000000080140080002409B
:105230004C2401408C03002010B5FEF737FA3220D1
:10524000FFF749FBFFF7CFFB00F088FA002010BD05
:10525000704710B540F225517148FCF7FDF818B1C0
:105260006F48001D0088C4B208216D48FCF7DEF8C5
:1052700020B16B48001D0088C4B200BF10BD10B53E
:1052800040F225516748FCF7E7F8C8B16648007856
:1052900090B96548407862280EDA6249091D09888C
:1052A000CAB261494878411C5F4B5970D91C0A54F5
:1052B0000A20C91E887003E05A48001D0088C4B245
:1052C00008215848FCF7B2F820B15648001D008864
:1052D000C4B200BF10BD10B540F225515348FCF7D1
:1052E000BBF8C8B15248007890B95148407862285C
:1052F0000EDA4E49091D0988CAB24D494878411C49
:105300004B4B5970D91C0A540A20C91E887003E0FF
:105310004648001D0088C4B208214448FCF786F8BE
:1053200020B14248001D0088C4B200BF10BD10B5B6
:1053300001218807FDF7F7F8002834D001218807FC
:10534000FDF702F93B480068401C3A4908603848BC
:10535000807890B136488078401E3549887008467C
:10536000807850B908464078022803DA0020487057
:10537000087002E001202E4908702B48807890B117
:1053800029488078401E284988700846807850B99E
:1053900008464078022803DA00204870087002E0CE
:1053A00001202149087010BD102023490860012008
:1053B00022490870704708201F49086001202049D1
:1053C0000870704710B54FF48070FBF70DF818B1F6
:1053D0004FF48070FBF719F810BD10B54FF0007056
:1053E000FCF785F958B1002202211648FCF751F963
:1053F0004FF08070FCF78FF905201349087010BD3D
:1054000010B52020FCF773F940B1002202210D48AD
:105410006438FCF73EF91020FCF77DF910BD000060
:105420000048004000440040630400200038014070
:10543000FC0300209003002014040140E703002037
:10544000E803002080000240A20300202DE9F04183
:10545000F7480068F7490968884209D2F648007899
:1054600001287FD10020F449087001F0EEF979E0BD
:10547000F2480068EF490968884273D0ED48006837
:10548000EE490860FFF728F90746ED49384601F074
:1054900090FD054601F0B2FEEA490880EA4800782E
:1054A000012807D1E94843780278E9A1EB4802F0E6
:1054B00059F906E0E54843780278E9A1E74802F0A7
:1054C00051F91020E9490870E44A00210A2001F04E
:1054D000D4FA384601F0A6FE05462A460B46E4A15A
:1054E000DE4802F03FF92020E0490870DB4A032142
:1054F000122001F0C2FAE0480078012805D1FF220D
:1055000000215A2001F019FB15E0FFF799FB054631
:1055100001F074FED949086008460068A0F5616092
:10552000642148434FF41671B0FBF1F4A2B200219C
:105530005A2001F002FBD2480078012805D101224F
:105540000021462001F079FB04E0002211464620AC
:1055500001F073FBB848007820B90120B649087003
:1055600001F065F9BDE8F08110B5C648006800F4A7
:105570008070002848D1C4480078C8B91E20FFF7C1
:10558000AAF9C048006800F4807000284FD10120BB
:10559000BD490870A7480068BC490860A548006874
:1055A000C01CA34908600821B9A000F0E9FA3EE058
:1055B000A0480068C01C9E4908609E480068B34926
:1055C0000968401A052832D34020AE490C310860E2
:1055D0008020091F08600A20FFF77DF94020A949B3
:1055E000083108608020091D08601420FFF773F956
:1055F0000323C822A9A1AAA000F08FF90120A04985
:105600000870FEF788FB12E09F48007801280BD154
:10561000884800689D490968401A052804D301207C
:1056200097490870FEF777FB00209749087010BD76
:105630002DE9F8439D480078F8B9844840783B2824
:105640000BD0824840780E2807D0804840781D282B
:1056500003D07E4840782C287ED17C48807828284A
:105660007ADB012091490870002091490880714837
:10567000006878308F4908606EE08D4800880F28F8
:1056800023DAFFF729F880468B4901F092FC0746A0
:1056900001F0B4FD85B20A2095FBF0F100FB11503A
:1056A000052805DB0A2095FBF0F0401C85B203E0DD
:1056B0000A2095FBF0F085B27D4801880088401CE7
:1056C0007B4A10807D4820F81150794800880F28C7
:1056D00037DB5C4B04220F217848FDF715FC0646AA
:1056E00066BB0020714908707149088057480078EE
:1056F0008006040E55484078052802DA601CC4B2C2
:105700000FE052484078142802DAA01CC4B208E026
:105710004E484078232802DAE01CC4B201E0201D84
:10572000C4B26748047047480088484B0090DA7953
:10573000997998882346FEF733FA02E000205C4905
:1057400008803C4800685B490968884204D9002009
:105750005649087056490880BDE8F883FFF75DFD9B
:10576000FEF7C1FE00F03FF901F0EAFA01F07BF824
:1057700054495548FEF7A5FA7D20FBF71EFB10BBE8
:1057800052A20021152001F078F94FF42F70FFF795
:10579000A2F84FF4FA70FFF79EF802214E48FBF78B
:1057A00028FA6420FFF797F802214B48FBF723FA09
:1057B000FCF788FF1F49086008460068C01C1C49A8
:1057C000086001F050F8FDF72EFD30E0FCF77AFF9D
:1057D0001849086041480068096888421CD015488B
:1057E00000683E4908603E480088401C3C490880EB
:1057F000FEF73BFBFFF71CFFFFF79AFA04461E4833
:105800000078A04206D01C4804700A480068C01CFA
:1058100007490860FCF7A5FEFFF7A6FEFFF716FE96
:1058200000F0E5FC00F0D8FC08B1FDF7EAFECDE79A
:10583000A803002030000020DC030020E00300204B
:1058400000002041B8030020A003002034070020FE
:10585000253032643A25303264206E001E08002064
:10586000253032643A25303264206D003107002043
:10587000252E316660430000C0030020C4030020D1
:10588000AD030020080C0140D4030020D803002001
:1058900041542B5354415455000000004F4E00001A
:1058A00041542B4144564F4E00000000AE030020EF
:1058B000B0030020B40300200000C842A607002067
:1058C000BA030020D0030020CC030020426C6520E6
:1058D000576174636800000000080140BC030020A9
:1058E000CA03002010B54FF48070084908604FF4D7
:1058F000FA70FEF7F0FF4FF480700449091F08604A
:105900004FF4FA70FEF7E7FF10BD000014080140E5
:105910000020FB494870087070472DE9F05F82460F
:105920000E4615461F464FF0000800BF57E04FF0E7
:105930000009FFF7EDFF2020F24908600120FEF783
:10594000CAFF504601F0D6FA1FFA80FB594650466E
:10595000FDF76CFF0220FEF7BEFF2020E949091F7A
:10596000086005B116B90020BDE8F09F2FE00A20BD
:10597000FEF7B1FFE248007838B30021E0484278F2
:10598000C01C8154314601F0A3FAF0B1DC484078E4
:10599000642802DD6420DA494870002406E0D84813
:1059A000C01C005DD8490855601CC4B2D44840787A
:1059B000A042F4DC0020D4490855D1484078D349AE
:1059C0000870FFF7A5FF0020CEE709F10A09A945F5
:1059D000CDD3FFF79DFF08F1010000F0FF08B845A7
:1059E000A5DB0120C0E71CB501210820FBF710FB57
:1059F000E020ADF8000003208DF8020010208DF8A3
:105A000003006946BF481438FBF746F81020ADF88C
:105A1000000003208DF8020048208DF8030069463D
:105A2000B8481438FBF738F84020B64908608020A1
:105A3000091F08600A20FEF74EFF4020B149091FE8
:105A400008608020091D08601420FEF744FF4FF015
:105A50008040FDF784FF0323C822ADA1ADA0FFF76E
:105A60005CFF0323C822AEA1AEA0FFF756FF0323BD
:105A7000C822B0A1B1A0FFF750FF002872D10024C6
:105A800006E0A148005D3A2800D105E0601CC4B2E0
:105A90009E4800788442F4DB00BF9C480078844232
:105AA00060DA9A480078001B0C285BDB9649601C82
:105AB000085C8DF80400A01C085C8DF8050000202F
:105AC0008DF8060001A8FDF7B9F99E4908708E49C6
:105AD000E01C085C8DF80400201D085C8DF80500B2
